:10057D004775696C6C61756D65204775696C6C6547
:02058D007400F8
:1001E4007B007A0079008B0A8A0B890C12056A124B
:1001F40003BC7F647E0012051B7F00120482750D10
:1002040000750800E508C39401502D7D00AF081265
:1002140004EF750900E509C394155018E50DC3945E
:10022400605011AF0D050DEF2420FFC201120340F1
:10023400050980E1050880CC7D007F071204EF7B6F
:10024400FF7A05797DD2021204C080FE750800E5AC
:1002540008C394085044E50844B0FFC20012058F57
:10026400C2007F0012058FC2007F1012058F75092E
:1002740000E509C39480501EAB0AAA0BA90C120412
:100284002AFFD20012058F7401250CF50CE4350BFE
:10029400F50B050980DB050880B57FC87E001205D3
:0F02A4001B7B007A0079008B0A8A0B890C809DE6
:0102B3002228
:10051B008E188F1975BF0F53C87FE51945186012D8
:10052B00E5C830E7F553C87FE519151970021518A2
:06053B0080E875BF0022FC
:0705AA0053D9BF75D90022EF
:1005410075BF0F75C80475CA6075CBF075CC607541
:06055100CDF075BF002291
:0705B10075A14075F801225D
:0405BF0075D10822C8
:1005570075A6FD75D4FF75D5FF75D63875E102759B
:03056700E240224D
:0A05A00075B69075A90375B2C32269
:10056A001205AA1205411205B11205BF120557124A
:03057A0005A022B7
:1000030020000000000000009E0000000E000E0013
:1000130028FE28FE284854FE5424462610C8C46CE3
:1000230092AA44A0000A060000003844820000821D
:1000330044380028107C102810107C101000A06099
:100043000000101010101000C0C000004020100865
:10005300047CA2928A7C8084FE808084C2A2928CDB
:1000630042828A9662302824FE208E8A8A8A727897
:100073009492927002E2120A066C9292926C0C9223
:1000830092523C006C6C000000AC6C0000102844E1
:100093008200282828282800824428100402A2125B
:1000A3000C6492F2827CFC222222FCFE9292926CDD
:1000B3007C82828244FE82824438FE92929282FE45
:1000C300121212027C829292F4FE101010FE8282AF
:1000D300FE82824080827E02FE10284482FE80805F
:1000E3008080FE041804FEFE081020FE7C828282BB
:1000F3007CFE1212120C7C82A242BCFE1232528C83
:100103008C929292620202FE02027E8080807E3E88
:100113004080403E7E8070807EC6281028C60E1028
:10012300E0100EC2A2928A8600FE828200040810AA
:100133002040008282FE0008040204088080808040
:1001430080000204080040A8A8A8F0FE90888870E8
:10015300708888884070888890FE70A8A8A830109E
:10016300FC12020418A4A4A47CFE100808F0008862
:10017300FA80004080807A00FE205088000082FED2
:100183008000F8083008F0F8100808F070888888B4
:1001930070F82828281010282830F8F810080810BC
:1001A30090A8A8A840087E88804078808040F838CE
:1001B300408040387880608078885020508818A02C
:1001C300A0A07888C8A8988800106C82000000FE60
:1001D300000000826C100010081020100000EE00D8
:0101E300001B
:0605B800430000FF0003F8
:1003BC00D2A3C2A3C2007F4012058FC2007FA1123C
:1003CC00058FC2007FC012058FC2007FA612058F59
:1003DC00C2007FA212058FC2007F2F12058FC200B0
:1003EC007FF812058FC2007F0012058FC2007F2795
:1003FC0012058FC2007F8112058FC2007F1012057B
:10040C008FC2007FAC12058FC2007F0012058FC215
:0E041C00007FAF12058FC2007FB012058F2245
:10058F008F1CA20092A4C2FF851CA330FFFDC2FFE7
:01059F002239
:1004EF008F1A8D1BE51A540FFFEF44B0FFC2001295
:1004FF00058FE51B540FFFC20012058FE51BC45477
:0C050F000FFFEF4410FFC20012058F2206
:020482008F12D7
:10048400751300E513C394085031E51344B0FFC25B
:100494000012058FC2007F0012058FC2007F101268
:1004A400058F751400E514C39480500BD200AF126D
:0B04B40012058F051480EE051380C8B0
:0104BF00221A
:020340008F0E1E
:10034200900000E0FBA3E0FAA3E0F912042AFF7E8A
:1003520000AD0E7C00C3ED9FFFEC9EFE7C007D0590
:10036200120470EF2401F511EE3400F510750F0040
:10037200E50FC394055034900000E0FBA3E0FAA31C
:10038200E0F90511E511AE107002051014FF8F821D
:100392008E83120443FF3001047EFF80027E00EE52
:1003A2006FFFD20012058F050F80C53001047FFF59
:0903B20080027F00D20012058FC9
:0103BB00221F
:1004C0008B158A168917AB15AA16A91712042AFFCD
:1004D000EF601BAB150517E517AA16700205161479
:0F04E000F912042AFFA202920112034080D822CF
:030000000202B445
:0C02B400787FE4F6D8FD7581200202FB83
:10042A00BB010689828A83E0225002E722BBFE02D0
:09043A00E32289828A83E4932203
:10044300BB010CE58229F582E5833AF583E022506E
:1004530006E92582F8E622BBFE06E92582F8E222B8
:0D046300E58229F582E5833AF583E49322D2
:10047000EF8DF0A4A8F0CF8CF0A428CE8DF0A42EA0
:02048000FE225A
:1002C0000201E4E493A3F8E493A34003F68001F26F
:1002D00008DFF48029E493A3F85407240CC8C3333F
:1002E000C4540F4420C8834004F456800146F6DF0E
:1002F000E4800B01020408102040809005B8E47EE1
:10030000019360BCA3FF543F30E509541FFEE49302
:10031000A360010ECF54C025E060A840B8E493A3C9
:10032000FAE493A3F8E493A3C8C582C8CAC583CAF4
:10033000F0A3C8C582C8CAC583CADFE9DEE780BEAC
:0105BE00003C
:00000001FF
